{
  "address": "0x9fE46736679d2D9a65F0992F2272dE9f3c7fa6e0",
  "abi": [
    {
      "inputs": [
        {
          "internalType": "address",
          "name": "_realFiToken",
          "type": "address"
        },
        {
          "internalType": "address",
          "name": "_setdToken",
          "type": "address"
        }
      ],
      "stateMutability": "nonpayable",
      "type": "constructor"
    },
    {
      "inputs": [
        {
          "internalType": "address",
          "name": "owner",
          "type": "address"
        }
      ],
      "name": "OwnableInvalidOwner",
      "type": "error"
    },
    {
      "inputs": [
        {
          "internalType": "address",
          "name": "account",
          "type": "address"
        }
      ],
      "name": "OwnableUnauthorizedAccount",
      "type": "error"
    },
    {
      "anonymous": false,
      "inputs": [
        {
          "indexed": true,
          "internalType": "address",
          "name": "previousOwner",
          "type": "address"
        },
        {
          "indexed": true,
          "internalType": "address",
          "name": "newOwner",
          "type": "address"
        }
      ],
      "name": "OwnershipTransferred",
      "type": "event"
    },
    {
      "anonymous": false,
      "inputs": [
        {
          "indexed": false,
          "internalType": "uint256",
          "name": "propertyId",
          "type": "uint256"
        },
        {
          "indexed": false,
          "internalType": "address",
          "name": "fractionalToken",
          "type": "address"
        }
      ],
      "name": "PropertyTokenized",
      "type": "event"
    },
    {
      "anonymous": false,
      "inputs": [
        {
          "indexed": false,
          "internalType": "uint256",
          "name": "propertyId",
          "type": "uint256"
        },
        {
          "indexed": false,
          "internalType": "uint256",
          "name": "amount",
          "type": "uint256"
        }
      ],
      "name": "RentalDistributed",
      "type": "event"
    },
    {
      "inputs": [
        {
          "internalType": "uint256",
          "name": "propertyId",
          "type": "uint256"
        }
      ],
      "name": "distributeRental",
      "outputs": [],
      "stateMutability": "nonpayable",
      "type": "function"
    },
    {
      "inputs": [
        {
          "internalType": "uint256",
          "name": "",
          "type": "uint256"
        }
      ],
      "name": "fractionalTokens",
      "outputs": [
        {
          "internalType": "address",
          "name": "",
          "type": "address"
        }
      ],
      "stateMutability": "view",
      "type": "function"
    },
    {
      "inputs": [],
      "name": "owner",
      "outputs": [
        {
          "internalType": "address",
          "name": "",
          "type": "address"
        }
      ],
      "stateMutability": "view",
      "type": "function"
    },
    {
      "inputs": [],
      "name": "realFiToken",
      "outputs": [
        {
          "internalType": "contract RealFiToken",
          "name": "",
          "type": "address"
        }
      ],
      "stateMutability": "view",
      "type": "function"
    },
    {
      "inputs": [],
      "name": "renounceOwnership",
      "outputs": [],
      "stateMutability": "nonpayable",
      "type": "function"
    },
    {
      "inputs": [],
      "name": "setdToken",
      "outputs": [
        {
          "internalType": "contract SETDToken",
          "name": "",
          "type": "address"
        }
      ],
      "stateMutability": "view",
      "type": "function"
    },
    {
      "inputs": [
        {
          "internalType": "string",
          "name": "name",
          "type": "string"
        },
        {
          "internalType": "string",
          "name": "location",
          "type": "string"
        },
        {
          "internalType": "uint256",
          "name": "value",
          "type": "uint256"
        },
        {
          "internalType": "uint256",
          "name": "totalFractions",
          "type": "uint256"
        },
        {
          "internalType": "string",
          "name": "fractionalName",
          "type": "string"
        },
        {
          "internalType": "string",
          "name": "fractionalSymbol",
          "type": "string"
        }
      ],
      "name": "tokenizeProperty",
      "outputs": [],
      "stateMutability": "nonpayable",
      "type": "function"
    },
    {
      "inputs": [
        {
          "internalType": "address",
          "name": "newOwner",
          "type": "address"
        }
      ],
      "name": "transferOwnership",
      "outputs": [],
      "stateMutability": "nonpayable",
      "type": "function"
    }
  ],
  "transactionHash": "0xdda9c930d4ae9e65e7f16676ebfadde6988868d7e3c88f276199d298c8fe4398",
  "args": [
    "0xe7f1725E7734CE288F8367e1Bb143E90bb3F0512",
    "0x5FbDB2315678afecb367f032d93F642f64180aa3"
  ],
  "numDeployments": 1,
  "solcInputHash": "da755ba7ac712d02a504eb1169b5ce44",
  "bytecode": "0x608060405234801561001057600080fd5b506040516119e83803806119e883398101604081905261002f916100fc565b338061005557604051631e4fbdf760e01b81526000600482015260240160405180910390fd5b61005e81610090565b50600180546001600160a01b039384166001600160a01b0319918216179091556002805492909316911617905561012f565b600080546001600160a01b038381166001600160a01b0319831681178455604051919092169283917f8be0079c531659141344cd1fd0a4f28419497f9722a3daafe3b4186f6b6457e09190a35050565b80516001600160a01b03811681146100f757600080fd5b919050565b6000806040838503121561010f57600080fd5b610118836100e0565b9150610126602084016100e0565b90509250929050565b6118aa8061013e6000396000f3fe60806040523480156200001157600080fd5b5060043610620000935760003560e01c80637b19db9b11620000625780637b19db9b14620001025780638da5cb5b1462000116578063f2fde38b1462000128578063f78f1f7c146200013f57600080fd5b80631da0f20314620000985780632a8f2ca114620000b15780632b92a6b414620000c8578063715018a614620000f8575b600080fd5b620000af620000a93660046200070c565b6200016b565b005b620000af620000c2366004620007d8565b620002bd565b600254620000dc906001600160a01b031681565b6040516001600160a01b03909116815260200160405180910390f35b620000af62000552565b600154620000dc906001600160a01b031681565b6000546001600160a01b0316620000dc565b620000af62000139366004620007f2565b6200056a565b620000dc62000150366004620007d8565b6003602052600090815260409020546001600160a01b031681565b62000175620005ae565b60015460405163d6ac8b4f60e01b81526000916001600160a01b03169063d6ac8b4f90620001ae908a908a908a908a9060040162000878565b6020604051808303816000875af1158015620001ce573d6000803e3d6000fd5b505050506040513d601f19601f82011682018060405250810190620001f49190620008b5565b90506000838386600160009054906101000a90046001600160a01b03168560405162000220906200062d565b62000230959493929190620008cf565b604051809103906000f0801580156200024d573d6000803e3d6000fd5b5060008381526003602090815260409182902080546001600160a01b0319166001600160a01b0385169081179091558251868152918201529192507f3ace323e7b744e3a97fc482a6baee257ca9c317abdc4d43a95305c596f50b11e910160405180910390a15050505050505050565b620002c7620005ae565b600154604051631ef6210160e31b81526004810183905260009182916001600160a01b039091169063f7b1080890602401600060405180830381865afa15801562000316573d6000803e3d6000fd5b505050506040513d6000823e601f3d908101601f1916820160405262000340919081019062000989565b955095505050505081620003945760405162461bcd60e51b8152602060048201526016602482015275141c9bdc195c9d1e481a5cc81b9bdd081c995b9d195960521b60448201526064015b60405180910390fd5b60008381526003602090815260408083205481516318160ddd60e01b815291516001600160a01b03909116939284926318160ddd92600480830193928290030181865afa158015620003ea573d6000803e3d6000fd5b505050506040513d601f19601f82011682018060405250810190620004109190620008b5565b6002546040516340c10f1960e01b8152306004820152602481018690529192506001600160a01b0316906340c10f1990604401600060405180830381600087803b1580156200045e57600080fd5b505af115801562000473573d6000803e3d6000fd5b50506002546001600160a01b0316915063a9059cbb90506200049d6000546001600160a01b031690565b6040516001600160e01b031960e084901b1681526001600160a01b039091166004820152602481018690526044016020604051808303816000875af1158015620004eb573d6000803e3d6000fd5b505050506040513d601f19601f8201168201806040525081019062000511919062000a22565b5060408051868152602081018590527f97931a8135034456132cff61c881c1b14eb1cd90ca8cd5afd1a92109f0ee328a910160405180910390a15050505050565b6200055c620005ae565b620005686000620005dd565b565b62000574620005ae565b6001600160a01b038116620005a057604051631e4fbdf760e01b8152600060048201526024016200038b565b620005ab81620005dd565b50565b6000546001600160a01b03163314620005685760405163118cdaa760e01b81523360048201526024016200038b565b600080546001600160a01b038381166001600160a01b0319831681178455604051919092169283917f8be0079c531659141344cd1fd0a4f28419497f9722a3daafe3b4186f6b6457e09190a35050565b610e348062000a4183390190565b634e487b7160e01b600052604160045260246000fd5b604051601f8201601f1916810167ffffffffffffffff811182821017156200067d576200067d6200063b565b604052919050565b600067ffffffffffffffff821115620006a257620006a26200063b565b50601f01601f191660200190565b600082601f830112620006c257600080fd5b8135620006d9620006d38262000685565b62000651565b818152846020838601011115620006ef57600080fd5b816020850160208301376000918101602001919091529392505050565b60008060008060008060c087890312156200072657600080fd5b863567ffffffffffffffff808211156200073f57600080fd5b6200074d8a838b01620006b0565b975060208901359150808211156200076457600080fd5b620007728a838b01620006b0565b9650604089013595506060890135945060808901359150808211156200079757600080fd5b620007a58a838b01620006b0565b935060a0890135915080821115620007bc57600080fd5b50620007cb89828a01620006b0565b9150509295509295509295565b600060208284031215620007eb57600080fd5b5035919050565b6000602082840312156200080557600080fd5b81356001600160a01b03811681146200081d57600080fd5b9392505050565b60005b838110156200084157818101518382015260200162000827565b50506000910152565b600081518084526200086481602086016020860162000824565b601f01601f19169290920160200192915050565b6080815260006200088d60808301876200084a565b8281036020840152620008a181876200084a565b604084019590955250506060015292915050565b600060208284031215620008c857600080fd5b5051919050565b60a081526000620008e460a08301886200084a565b8281036020840152620008f881886200084a565b604084019690965250506001600160a01b0392909216606083015260809091015292915050565b600082601f8301126200093157600080fd5b815162000942620006d38262000685565b8181528460208386010111156200095857600080fd5b6200096b82602083016020870162000824565b949350505050565b805180151581146200098457600080fd5b919050565b60008060008060008060c08789031215620009a357600080fd5b865167ffffffffffffffff80821115620009bc57600080fd5b620009ca8a838b016200091f565b97506020890151915080821115620009e157600080fd5b50620009f089828a016200091f565b955050604087015193506060870151925062000a0f6080880162000973565b915060a087015190509295509295509295565b60006020828403121562000a3557600080fd5b6200081d826200097356fe60806040523480156200001157600080fd5b5060405162000e3438038062000e34833981016040819052620000349162000355565b338585600362000045838262000485565b50600462000054828262000485565b5050506001600160a01b0381166200008757604051631e4fbdf760e01b8152600060048201526024015b60405180910390fd5b6200009281620000cd565b506200009f33846200011f565b600680546001600160a01b0319166001600160a01b0393909316929092179091556007555062000579915050565b600580546001600160a01b038381166001600160a01b0319831681179093556040519116919082907f8be0079c531659141344cd1fd0a4f28419497f9722a3daafe3b4186f6b6457e090600090a35050565b6001600160a01b0382166200014b5760405163ec442f0560e01b8152600060048201526024016200007e565b62000159600083836200015d565b5050565b6001600160a01b0383166200018c57806002600082825462000180919062000551565b90915550620002009050565b6001600160a01b03831660009081526020819052604090205481811015620001e15760405163391434e360e21b81526001600160a01b038516600482015260248101829052604481018390526064016200007e565b6001600160a01b03841660009081526020819052604090209082900390555b6001600160a01b0382166200021e576002805482900390556200023d565b6001600160a01b03821660009081526020819052604090208054820190555b816001600160a01b0316836001600160a01b03167fddf252ad1be2c89b69c2b068fc378daa952ba7f163c4a11628f55a4df523b3ef836040516200028391815260200190565b60405180910390a3505050565b634e487b7160e01b600052604160045260246000fd5b600082601f830112620002b857600080fd5b81516001600160401b0380821115620002d557620002d562000290565b604051601f8301601f19908116603f0116810190828211818310171562000300576200030062000290565b816040528381526020925086838588010111156200031d57600080fd5b600091505b8382101562000341578582018301518183018401529082019062000322565b600093810190920192909252949350505050565b600080600080600060a086880312156200036e57600080fd5b85516001600160401b03808211156200038657600080fd5b6200039489838a01620002a6565b96506020880151915080821115620003ab57600080fd5b50620003ba88828901620002a6565b60408801516060890151919650945090506001600160a01b0381168114620003e157600080fd5b80925050608086015190509295509295909350565b600181811c908216806200040b57607f821691505b6020821081036200042c57634e487b7160e01b600052602260045260246000fd5b50919050565b601f8211156200048057600081815260208120601f850160051c810160208610156200045b5750805b601f850160051c820191505b818110156200047c5782815560010162000467565b5050505b505050565b81516001600160401b03811115620004a157620004a162000290565b620004b981620004b28454620003f6565b8462000432565b602080601f831160018114620004f15760008415620004d85750858301515b600019600386901b1c1916600185901b1785556200047c565b600085815260208120601f198616915b82811015620005225788860151825594840194600190910190840162000501565b5085821015620005415787850151600019600388901b60f8161c191681555b5050505050600190811b01905550565b808201808211156200057357634e487b7160e01b600052601160045260246000fd5b92915050565b6108ab80620005896000396000f3fe608060405234801561001057600080fd5b50600436106100ea5760003560e01c80637b19db9b1161008c578063a9059cbb11610066578063a9059cbb146101db578063dd62ed3e146101ee578063ef9248bd14610227578063f2fde38b1461023057600080fd5b80637b19db9b146101975780638da5cb5b146101c257806395d89b41146101d357600080fd5b806323b872dd116100c857806323b872dd14610142578063313ce5671461015557806370a0823114610164578063715018a61461018d57600080fd5b806306fdde03146100ef578063095ea7b31461010d57806318160ddd14610130575b600080fd5b6100f7610243565b60405161010491906106f5565b60405180910390f35b61012061011b36600461075f565b6102d5565b6040519015158152602001610104565b6002545b604051908152602001610104565b610120610150366004610789565b6102ef565b60405160128152602001610104565b6101346101723660046107c5565b6001600160a01b031660009081526020819052604090205490565b610195610313565b005b6006546101aa906001600160a01b031681565b6040516001600160a01b039091168152602001610104565b6005546001600160a01b03166101aa565b6100f7610327565b6101206101e936600461075f565b610336565b6101346101fc3660046107e7565b6001600160a01b03918216600090815260016020908152604080832093909416825291909152205490565b61013460075481565b61019561023e3660046107c5565b610344565b6060600380546102529061081a565b80601f016020809104026020016040519081016040528092919081815260200182805461027e9061081a565b80156102cb5780601f106102a0576101008083540402835291602001916102cb565b820191906000526020600020905b8154815290600101906020018083116102ae57829003601f168201915b5050505050905090565b6000336102e3818585610387565b60019150505b92915050565b6000336102fd858285610399565b610308858585610418565b506001949350505050565b61031b610477565b61032560006104a4565b565b6060600480546102529061081a565b6000336102e3818585610418565b61034c610477565b6001600160a01b03811661037b57604051631e4fbdf760e01b8152600060048201526024015b60405180910390fd5b610384816104a4565b50565b61039483838360016104f6565b505050565b6001600160a01b03838116600090815260016020908152604080832093861683529290522054600019811015610412578181101561040357604051637dc7a0d960e11b81526001600160a01b03841660048201526024810182905260448101839052606401610372565b610412848484840360006104f6565b50505050565b6001600160a01b03831661044257604051634b637e8f60e11b815260006004820152602401610372565b6001600160a01b03821661046c5760405163ec442f0560e01b815260006004820152602401610372565b6103948383836105cb565b6005546001600160a01b031633146103255760405163118cdaa760e01b8152336004820152602401610372565b600580546001600160a01b038381166001600160a01b0319831681179093556040519116919082907f8be0079c531659141344cd1fd0a4f28419497f9722a3daafe3b4186f6b6457e090600090a35050565b6001600160a01b0384166105205760405163e602df0560e01b815260006004820152602401610372565b6001600160a01b03831661054a57604051634a1406b160e11b815260006004820152602401610372565b6001600160a01b038085166000908152600160209081526040808320938716835292905220829055801561041257826001600160a01b0316846001600160a01b03167f8c5be1e5ebec7d5bd14f71427d1e84f3dd0314c0f7b2291e5b200ac8c7c3b925846040516105bd91815260200190565b60405180910390a350505050565b6001600160a01b0383166105f65780600260008282546105eb9190610854565b909155506106689050565b6001600160a01b038316600090815260208190526040902054818110156106495760405163391434e360e21b81526001600160a01b03851660048201526024810182905260448101839052606401610372565b6001600160a01b03841660009081526020819052604090209082900390555b6001600160a01b038216610684576002805482900390556106a3565b6001600160a01b03821660009081526020819052604090208054820190555b816001600160a01b0316836001600160a01b03167fddf252ad1be2c89b69c2b068fc378daa952ba7f163c4a11628f55a4df523b3ef836040516106e891815260200190565b60405180910390a3505050565b600060208083528351808285015260005b8181101561072257858101830151858201604001528201610706565b506000604082860101526040601f19601f8301168501019250505092915050565b80356001600160a01b038116811461075a57600080fd5b919050565b6000806040838503121561077257600080fd5b61077b83610743565b946020939093013593505050565b60008060006060848603121561079e57600080fd5b6107a784610743565b92506107b560208501610743565b9150604084013590509250925092565b6000602082840312156107d757600080fd5b6107e082610743565b9392505050565b600080604083850312156107fa57600080fd5b61080383610743565b915061081160208401610743565b90509250929050565b600181811c9082168061082e57607f821691505b60208210810361084e57634e487b7160e01b600052602260045260246000fd5b50919050565b808201808211156102e957634e487b7160e01b600052601160045260246000fdfea26469706673582212203802c8a7ba2e7d672a544cbd207262899c270983d6ea99d4eb6bdb28ef2e3f9464736f6c63430008140033a264697066735822122017b7c3da3cba2ffa11ea9c5c5bacea81b84e3527e619cdbadf931d78b0e7dc4164736f6c63430008140033",
  "devdoc": {
    "errors": {
      "OwnableInvalidOwner(address)": [
        {
          "details": "The owner is not a valid owner account. (eg. `address(0)`)"
        }
      ],
      "OwnableUnauthorizedAccount(address)": [
        {
          "details": "The caller account is not authorized to perform an operation."
        }
      ]
    },
    "kind": "dev",
    "methods": {
      "owner()": {
        "details": "Returns the address of the current owner."
      },
      "renounceOwnership()": {
        "details": "Leaves the contract without owner. It will not be possible to call `onlyOwner` functions. Can only be called by the current owner. NOTE: Renouncing ownership will leave the contract without an owner, thereby disabling any functionality that is only available to the owner."
      },
      "transferOwnership(address)": {
        "details": "Transfers ownership of the contract to a new account (`newOwner`). Can only be called by the current owner."
      }
    },
    "version": 1
  },
  "userdoc": {
    "kind": "user",
    "methods": {},
    "version": 1
  },
  "storageLayout": {
    "storage": [
      {
        "astId": 400,
        "contract": "contracts/EstateRegistry.sol:EstateRegistry",
        "label": "_owner",
        "offset": 0,
        "slot": "0",
        "type": "t_address"
      },
      {
        "astId": 9,
        "contract": "contracts/EstateRegistry.sol:EstateRegistry",
        "label": "realFiToken",
        "offset": 0,
        "slot": "1",
        "type": "t_contract(RealFiToken)295"
      },
      {
        "astId": 12,
        "contract": "contracts/EstateRegistry.sol:EstateRegistry",
        "label": "setdToken",
        "offset": 0,
        "slot": "2",
        "type": "t_contract(SETDToken)391"
      },
      {
        "astId": 16,
        "contract": "contracts/EstateRegistry.sol:EstateRegistry",
        "label": "fractionalTokens",
        "offset": 0,
        "slot": "3",
        "type": "t_mapping(t_uint256,t_address)"
      }
    ],
    "types": {
      "t_address": {
        "encoding": "inplace",
        "label": "address",
        "numberOfBytes": "20"
      },
      "t_contract(RealFiToken)295": {
        "encoding": "inplace",
        "label": "contract RealFiToken",
        "numberOfBytes": "20"
      },
      "t_contract(SETDToken)391": {
        "encoding": "inplace",
        "label": "contract SETDToken",
        "numberOfBytes": "20"
      },
      "t_mapping(t_uint256,t_address)": {
        "encoding": "mapping",
        "key": "t_uint256",
        "label": "mapping(uint256 => address)",
        "numberOfBytes": "32",
        "value": "t_address"
      },
      "t_uint256": {
        "encoding": "inplace",
        "label": "uint256",
        "numberOfBytes": "32"
      }
    }
  }
}